{
  "_format": "hh-sol-artifact-1",
  "contractName": "MockExchange",
  "sourceName": "contracts/MockExchange.sol",
  "abi": [
    {
      "inputs": [
        {
          "internalType": "address",
          "name": "_mockBTC",
          "type": "address"
        },
        {
          "internalType": "address",
          "name": "_mockUSDT",
          "type": "address"
        }
      ],
      "stateMutability": "nonpayable",
      "type": "constructor"
    },
    {
      "anonymous": false,
      "inputs": [
        {
          "indexed": true,
          "internalType": "address",
          "name": "user",
          "type": "address"
        },
        {
          "indexed": false,
          "internalType": "string",
          "name": "tokenSymbol",
          "type": "string"
        },
        {
          "indexed": false,
          "internalType": "uint256",
          "name": "ethAmount",
          "type": "uint256"
        },
        {
          "indexed": false,
          "internalType": "uint256",
          "name": "tokenAmount",
          "type": "uint256"
        },
        {
          "indexed": false,
          "internalType": "bool",
          "name": "isEthToToken",
          "type": "bool"
        }
      ],
      "name": "EthTrade",
      "type": "event"
    },
    {
      "anonymous": false,
      "inputs": [
        {
          "indexed": true,
          "internalType": "address",
          "name": "user",
          "type": "address"
        },
        {
          "indexed": false,
          "internalType": "string",
          "name": "tokenFrom",
          "type": "string"
        },
        {
          "indexed": false,
          "internalType": "string",
          "name": "tokenTo",
          "type": "string"
        },
        {
          "indexed": false,
          "internalType": "uint256",
          "name": "amountFrom",
          "type": "uint256"
        },
        {
          "indexed": false,
          "internalType": "uint256",
          "name": "amountTo",
          "type": "uint256"
        }
      ],
      "name": "Trade",
      "type": "event"
    },
    {
      "inputs": [
        {
          "internalType": "string",
          "name": "tokenSymbol",
          "type": "string"
        },
        {
          "internalType": "address",
          "name": "tokenAddress",
          "type": "address"
        }
      ],
      "name": "setTokenAddress",
      "outputs": [],
      "stateMutability": "nonpayable",
      "type": "function"
    },
    {
      "inputs": [
        {
          "internalType": "string",
          "name": "tokenFrom",
          "type": "string"
        },
        {
          "internalType": "string",
          "name": "tokenTo",
          "type": "string"
        },
        {
          "internalType": "uint256",
          "name": "amountFrom",
          "type": "uint256"
        },
        {
          "internalType": "uint256",
          "name": "amountTo",
          "type": "uint256"
        }
      ],
      "name": "trade",
      "outputs": [],
      "stateMutability": "nonpayable",
      "type": "function"
    },
    {
      "inputs": [
        {
          "internalType": "string",
          "name": "tokenSymbol",
          "type": "string"
        },
        {
          "internalType": "uint256",
          "name": "tokenAmount",
          "type": "uint256"
        }
      ],
      "name": "tradeEthForToken",
      "outputs": [],
      "stateMutability": "payable",
      "type": "function"
    },
    {
      "inputs": [
        {
          "internalType": "string",
          "name": "tokenSymbol",
          "type": "string"
        },
        {
          "internalType": "uint256",
          "name": "tokenAmount",
          "type": "uint256"
        },
        {
          "internalType": "uint256",
          "name": "ethAmount",
          "type": "uint256"
        }
      ],
      "name": "tradeTokenForEth",
      "outputs": [],
      "stateMutability": "nonpayable",
      "type": "function"
    },
    {
      "stateMutability": "payable",
      "type": "receive"
    }
  ],
  "bytecode": "0x60806040523480156200001157600080fd5b506040516200107a3803806200107a833981810160405281019062000037919062000163565b816000604051620000489062000205565b908152602001604051809103902060006101000a81548173ffffffffffffffffffffffffffffffffffffffff021916908373ffffffffffffffffffffffffffffffffffffffff160217905550806000604051620000a5906200026c565b908152602001604051809103902060006101000a81548173ffffffffffffffffffffffffffffffffffffffff021916908373ffffffffffffffffffffffffffffffffffffffff160217905550505062000283565b600080fd5b600073ffffffffffffffffffffffffffffffffffffffff82169050919050565b60006200012b82620000fe565b9050919050565b6200013d816200011e565b81146200014957600080fd5b50565b6000815190506200015d8162000132565b92915050565b600080604083850312156200017d576200017c620000f9565b5b60006200018d858286016200014c565b9250506020620001a0858286016200014c565b9150509250929050565b600081905092915050565b7f4254430000000000000000000000000000000000000000000000000000000000600082015250565b6000620001ed600383620001aa565b9150620001fa82620001b5565b600382019050919050565b60006200021282620001de565b9150819050919050565b7f5553445400000000000000000000000000000000000000000000000000000000600082015250565b600062000254600483620001aa565b915062000261826200021c565b600482019050919050565b6000620002798262000245565b9150819050919050565b610de780620002936000396000f3fe6080604052600436106100435760003560e01c806317456e561461004f578063cc01c66a14610078578063d91d3cfb14610094578063f6d0b769146100bd5761004a565b3661004a57005b600080fd5b34801561005b57600080fd5b50610076600480360381019061007191906108e6565b6100e6565b005b610092600480360381019061008d9190610978565b610147565b005b3480156100a057600080fd5b506100bb60048036038101906100b691906109d4565b6102d1565b005b3480156100c957600080fd5b506100e460048036038101906100df9190610a73565b61055a565b005b806000836040516100f79190610b53565b908152602001604051809103902060006101000a81548173ffffffffffffffffffffffffffffffffffffffff021916908373ffffffffffffffffffffffffffffffffffffffff1602179055505050565b600080836040516101589190610b53565b908152602001604051809103902060009054906101000a900473ffffffffffffffffffffffffffffffffffffffff169050600073ffffffffffffffffffffffffffffffffffffffff168173ffffffffffffffffffffffffffffffffffffffff16036101f8576040517f08c379a00000000000000000000000000000000000000000000000000000000081526004016101ef90610bc7565b60405180910390fd5b8073ffffffffffffffffffffffffffffffffffffffff1663a9059cbb33846040518363ffffffff1660e01b8152600401610233929190610c05565b6020604051808303816000875af1158015610252573d6000803e3d6000fd5b505050506040513d601f19601f820116820180604052508101906102769190610c66565b503373ffffffffffffffffffffffffffffffffffffffff167fad9ebdff596f20248773296113b5e4c47088f28eac57f009f3609fc1fe1c900084348560016040516102c49493929190610cdb565b60405180910390a2505050565b600080856040516102e29190610b53565b908152602001604051809103902060009054906101000a900473ffffffffffffffffffffffffffffffffffffffff169050600080856040516103249190610b53565b908152602001604051809103902060009054906101000a900473ffffffffffffffffffffffffffffffffffffffff169050600073ffffffffffffffffffffffffffffffffffffffff168273ffffffffffffffffffffffffffffffffffffffff16141580156103bf5750600073ffffffffffffffffffffffffffffffffffffffff168173ffffffffffffffffffffffffffffffffffffffff1614155b6103fe576040517f08c379a00000000000000000000000000000000000000000000000000000000081526004016103f590610bc7565b60405180910390fd5b8173ffffffffffffffffffffffffffffffffffffffff166323b872dd3330876040518463ffffffff1660e01b815260040161043b93929190610d27565b6020604051808303816000875af115801561045a573d6000803e3d6000fd5b505050506040513d601f19601f8201168201806040525081019061047e9190610c66565b508073ffffffffffffffffffffffffffffffffffffffff1663a9059cbb33856040518363ffffffff1660e01b81526004016104ba929190610c05565b6020604051808303816000875af11580156104d9573d6000803e3d6000fd5b505050506040513d601f19601f820116820180604052508101906104fd9190610c66565b503373ffffffffffffffffffffffffffffffffffffffff167f1f649b4452494b105b8454369f7edc62d4542521e3d06f9d01cc8f14a8a30b658787878760405161054a9493929190610d5e565b60405180910390a2505050505050565b6000808460405161056b9190610b53565b908152602001604051809103902060009054906101000a900473ffffffffffffffffffffffffffffffffffffffff169050600073ffffffffffffffffffffffffffffffffffffffff168173ffffffffffffffffffffffffffffffffffffffff160361060b576040517f08c379a000000000000000000000000000000000000000000000000000000000815260040161060290610bc7565b60405180910390fd5b8073ffffffffffffffffffffffffffffffffffffffff166323b872dd3330866040518463ffffffff1660e01b815260040161064893929190610d27565b6020604051808303816000875af1158015610667573d6000803e3d6000fd5b505050506040513d601f19601f8201168201806040525081019061068b9190610c66565b503373ffffffffffffffffffffffffffffffffffffffff166108fc839081150290604051600060405180830381858888f193505050501580156106d2573d6000803e3d6000fd5b503373ffffffffffffffffffffffffffffffffffffffff167fad9ebdff596f20248773296113b5e4c47088f28eac57f009f3609fc1fe1c900085848660006040516107209493929190610cdb565b60405180910390a250505050565b6000604051905090565b600080fd5b600080fd5b600080fd5b600080fd5b6000601f19601f8301169050919050565b7f4e487b7100000000000000000000000000000000000000000000000000000000600052604160045260246000fd5b6107958261074c565b810181811067ffffffffffffffff821117156107b4576107b361075d565b5b80604052505050565b60006107c761072e565b90506107d3828261078c565b919050565b600067ffffffffffffffff8211156107f3576107f261075d565b5b6107fc8261074c565b9050602081019050919050565b82818337600083830152505050565b600061082b610826846107d8565b6107bd565b90508281526020810184848401111561084757610846610747565b5b610852848285610809565b509392505050565b600082601f83011261086f5761086e610742565b5b813561087f848260208601610818565b91505092915050565b600073ffffffffffffffffffffffffffffffffffffffff82169050919050565b60006108b382610888565b9050919050565b6108c3816108a8565b81146108ce57600080fd5b50565b6000813590506108e0816108ba565b92915050565b600080604083850312156108fd576108fc610738565b5b600083013567ffffffffffffffff81111561091b5761091a61073d565b5b6109278582860161085a565b9250506020610938858286016108d1565b9150509250929050565b6000819050919050565b61095581610942565b811461096057600080fd5b50565b6000813590506109728161094c565b92915050565b6000806040838503121561098f5761098e610738565b5b600083013567ffffffffffffffff8111156109ad576109ac61073d565b5b6109b98582860161085a565b92505060206109ca85828601610963565b9150509250929050565b600080600080608085870312156109ee576109ed610738565b5b600085013567ffffffffffffffff811115610a0c57610a0b61073d565b5b610a188782880161085a565b945050602085013567ffffffffffffffff811115610a3957610a3861073d565b5b610a458782880161085a565b9350506040610a5687828801610963565b9250506060610a6787828801610963565b91505092959194509250565b600080600060608486031215610a8c57610a8b610738565b5b600084013567ffffffffffffffff811115610aaa57610aa961073d565b5b610ab68682870161085a565b9350506020610ac786828701610963565b9250506040610ad886828701610963565b9150509250925092565b600081519050919050565b600081905092915050565b60005b83811015610b16578082015181840152602081019050610afb565b60008484015250505050565b6000610b2d82610ae2565b610b378185610aed565b9350610b47818560208601610af8565b80840191505092915050565b6000610b5f8284610b22565b915081905092915050565b600082825260208201905092915050565b7f546f6b656e2061646472657373206e6f74207365740000000000000000000000600082015250565b6000610bb1601583610b6a565b9150610bbc82610b7b565b602082019050919050565b60006020820190508181036000830152610be081610ba4565b9050919050565b610bf0816108a8565b82525050565b610bff81610942565b82525050565b6000604082019050610c1a6000830185610be7565b610c276020830184610bf6565b9392505050565b60008115159050919050565b610c4381610c2e565b8114610c4e57600080fd5b50565b600081519050610c6081610c3a565b92915050565b600060208284031215610c7c57610c7b610738565b5b6000610c8a84828501610c51565b91505092915050565b6000610c9e82610ae2565b610ca88185610b6a565b9350610cb8818560208601610af8565b610cc18161074c565b840191505092915050565b610cd581610c2e565b82525050565b60006080820190508181036000830152610cf58187610c93565b9050610d046020830186610bf6565b610d116040830185610bf6565b610d1e6060830184610ccc565b95945050505050565b6000606082019050610d3c6000830186610be7565b610d496020830185610be7565b610d566040830184610bf6565b949350505050565b60006080820190508181036000830152610d788187610c93565b90508181036020830152610d8c8186610c93565b9050610d9b6040830185610bf6565b610da86060830184610bf6565b9594505050505056fea2646970667358221220f7d945580b918942d2a9d275f8a0f3cef8ffb2c45eb87068e446c852257380a464736f6c63430008140033",
  "linkReferences": {},
  "deployedLinkReferences": {}
}