{
  "_format": "hh-sol-artifact-1",
  "contractName": "MockExchange",
  "sourceName": "contracts/MockExchange.sol",
  "abi": [
    {
      "inputs": [
        {
          "internalType": "address",
          "name": "_mockBTC",
          "type": "address"
        },
        {
          "internalType": "address",
          "name": "_mockUSDT",
          "type": "address"
        }
      ],
      "stateMutability": "nonpayable",
      "type": "constructor"
    },
    {
      "anonymous": false,
      "inputs": [
        {
          "indexed": true,
          "internalType": "address",
          "name": "user",
          "type": "address"
        },
        {
          "indexed": false,
          "internalType": "string",
          "name": "tokenSymbol",
          "type": "string"
        },
        {
          "indexed": false,
          "internalType": "uint256",
          "name": "ethAmount",
          "type": "uint256"
        },
        {
          "indexed": false,
          "internalType": "uint256",
          "name": "tokenAmount",
          "type": "uint256"
        },
        {
          "indexed": false,
          "internalType": "bool",
          "name": "isEthToToken",
          "type": "bool"
        }
      ],
      "name": "EthTrade",
      "type": "event"
    },
    {
      "anonymous": false,
      "inputs": [
        {
          "indexed": true,
          "internalType": "address",
          "name": "previousOwner",
          "type": "address"
        },
        {
          "indexed": true,
          "internalType": "address",
          "name": "newOwner",
          "type": "address"
        }
      ],
      "name": "OwnershipTransferred",
      "type": "event"
    },
    {
      "anonymous": false,
      "inputs": [
        {
          "indexed": true,
          "internalType": "address",
          "name": "user",
          "type": "address"
        },
        {
          "indexed": false,
          "internalType": "string",
          "name": "tokenFrom",
          "type": "string"
        },
        {
          "indexed": false,
          "internalType": "string",
          "name": "tokenTo",
          "type": "string"
        },
        {
          "indexed": false,
          "internalType": "uint256",
          "name": "amountFrom",
          "type": "uint256"
        },
        {
          "indexed": false,
          "internalType": "uint256",
          "name": "amountTo",
          "type": "uint256"
        }
      ],
      "name": "Trade",
      "type": "event"
    },
    {
      "stateMutability": "payable",
      "type": "fallback"
    },
    {
      "inputs": [],
      "name": "owner",
      "outputs": [
        {
          "internalType": "address",
          "name": "",
          "type": "address"
        }
      ],
      "stateMutability": "view",
      "type": "function"
    },
    {
      "inputs": [],
      "name": "renounceOwnership",
      "outputs": [],
      "stateMutability": "nonpayable",
      "type": "function"
    },
    {
      "inputs": [
        {
          "internalType": "string",
          "name": "tokenSymbol",
          "type": "string"
        },
        {
          "internalType": "address",
          "name": "tokenAddress",
          "type": "address"
        }
      ],
      "name": "setTokenAddress",
      "outputs": [],
      "stateMutability": "nonpayable",
      "type": "function"
    },
    {
      "inputs": [
        {
          "internalType": "string",
          "name": "tokenFrom",
          "type": "string"
        },
        {
          "internalType": "string",
          "name": "tokenTo",
          "type": "string"
        },
        {
          "internalType": "uint256",
          "name": "amountFrom",
          "type": "uint256"
        },
        {
          "internalType": "uint256",
          "name": "amountTo",
          "type": "uint256"
        }
      ],
      "name": "trade",
      "outputs": [],
      "stateMutability": "nonpayable",
      "type": "function"
    },
    {
      "inputs": [
        {
          "internalType": "string",
          "name": "tokenSymbol",
          "type": "string"
        },
        {
          "internalType": "uint256",
          "name": "tokenAmount",
          "type": "uint256"
        }
      ],
      "name": "tradeEthForToken",
      "outputs": [],
      "stateMutability": "payable",
      "type": "function"
    },
    {
      "inputs": [
        {
          "internalType": "string",
          "name": "tokenSymbol",
          "type": "string"
        },
        {
          "internalType": "uint256",
          "name": "tokenAmount",
          "type": "uint256"
        },
        {
          "internalType": "uint256",
          "name": "ethAmount",
          "type": "uint256"
        }
      ],
      "name": "tradeTokenForEth",
      "outputs": [],
      "stateMutability": "nonpayable",
      "type": "function"
    },
    {
      "inputs": [
        {
          "internalType": "address",
          "name": "newOwner",
          "type": "address"
        }
      ],
      "name": "transferOwnership",
      "outputs": [],
      "stateMutability": "nonpayable",
      "type": "function"
    },
    {
      "stateMutability": "payable",
      "type": "receive"
    }
  ],
  "bytecode": "0x60806040523480156200001157600080fd5b50604051620018db380380620018db833981810160405281019062000037919062000256565b620000576200004b6200012060201b60201c565b6200012860201b60201c565b600180819055508160026040516200006f90620002f8565b908152602001604051809103902060006101000a81548173ffffffffffffffffffffffffffffffffffffffff021916908373ffffffffffffffffffffffffffffffffffffffff160217905550806002604051620000cc906200035f565b908152602001604051809103902060006101000a81548173ffffffffffffffffffffffffffffffffffffffff021916908373ffffffffffffffffffffffffffffffffffffffff160217905550505062000376565b600033905090565b60008060009054906101000a900473ffffffffffffffffffffffffffffffffffffffff169050816000806101000a81548173ffffffffffffffffffffffffffffffffffffffff021916908373ffffffffffffffffffffffffffffffffffffffff1602179055508173ffffffffffffffffffffffffffffffffffffffff168173ffffffffffffffffffffffffffffffffffffffff167f8be0079c531659141344cd1fd0a4f28419497f9722a3daafe3b4186f6b6457e060405160405180910390a35050565b600080fd5b600073ffffffffffffffffffffffffffffffffffffffff82169050919050565b60006200021e82620001f1565b9050919050565b620002308162000211565b81146200023c57600080fd5b50565b600081519050620002508162000225565b92915050565b6000806040838503121562000270576200026f620001ec565b5b600062000280858286016200023f565b925050602062000293858286016200023f565b9150509250929050565b600081905092915050565b7f4254430000000000000000000000000000000000000000000000000000000000600082015250565b6000620002e06003836200029d565b9150620002ed82620002a8565b600382019050919050565b60006200030582620002d1565b9150819050919050565b7f5553445400000000000000000000000000000000000000000000000000000000600082015250565b6000620003476004836200029d565b915062000354826200030f565b600482019050919050565b60006200036c8262000338565b9150819050919050565b61155580620003866000396000f3fe6080604052600436106100745760003560e01c8063cc01c66a1161004e578063cc01c66a146100e8578063d91d3cfb14610104578063f2fde38b1461012d578063f6d0b769146101565761007b565b806317456e561461007d578063715018a6146100a65780638da5cb5b146100bd5761007b565b3661007b57005b005b34801561008957600080fd5b506100a4600480360381019061009f9190610d12565b61017f565b005b3480156100b257600080fd5b506100bb610257565b005b3480156100c957600080fd5b506100d261026b565b6040516100df9190610d7d565b60405180910390f35b61010260048036038101906100fd9190610dce565b610294565b005b34801561011057600080fd5b5061012b60048036038101906101269190610e2a565b610472565b005b34801561013957600080fd5b50610154600480360381019061014f9190610ec9565b61070d565b005b34801561016257600080fd5b5061017d60048036038101906101789190610ef6565b610790565b005b6101876109b8565b600073ffffffffffffffffffffffffffffffffffffffff168173ffffffffffffffffffffffffffffffffffffffff16036101f6576040517f08c379a00000000000000000000000000000000000000000000000000000000081526004016101ed90610fc2565b60405180910390fd5b806002836040516102079190611053565b908152602001604051809103902060006101000a81548173ffffffffffffffffffffffffffffffffffffffff021916908373ffffffffffffffffffffffffffffffffffffffff1602179055505050565b61025f6109b8565b6102696000610a36565b565b60008060009054906101000a900473ffffffffffffffffffffffffffffffffffffffff16905090565b61029c610afa565b60006002836040516102ae9190611053565b908152602001604051809103902060009054906101000a900473ffffffffffffffffffffffffffffffffffffffff169050600073ffffffffffffffffffffffffffffffffffffffff168173ffffffffffffffffffffffffffffffffffffffff160361034e576040517f08c379a0000000000000000000000000000000000000000000000000000000008152600401610345906110b6565b60405180910390fd5b60003411610391576040517f08c379a000000000000000000000000000000000000000000000000000000000815260040161038890611148565b60405180910390fd5b8073ffffffffffffffffffffffffffffffffffffffff1663a9059cbb33846040518363ffffffff1660e01b81526004016103cc929190611177565b6020604051808303816000875af11580156103eb573d6000803e3d6000fd5b505050506040513d601f19601f8201168201806040525081019061040f91906111d8565b503373ffffffffffffffffffffffffffffffffffffffff167fad9ebdff596f20248773296113b5e4c47088f28eac57f009f3609fc1fe1c9000843485600160405161045d949392919061124d565b60405180910390a25061046e610b49565b5050565b61047a610afa565b600060028560405161048c9190611053565b908152602001604051809103902060009054906101000a900473ffffffffffffffffffffffffffffffffffffffff16905060006002856040516104cf9190611053565b908152602001604051809103902060009054906101000a900473ffffffffffffffffffffffffffffffffffffffff169050600073ffffffffffffffffffffffffffffffffffffffff168273ffffffffffffffffffffffffffffffffffffffff161415801561056a5750600073ffffffffffffffffffffffffffffffffffffffff168173ffffffffffffffffffffffffffffffffffffffff1614155b6105a9576040517f08c379a00000000000000000000000000000000000000000000000000000000081526004016105a0906110b6565b60405180910390fd5b8173ffffffffffffffffffffffffffffffffffffffff166323b872dd3330876040518463ffffffff1660e01b81526004016105e693929190611299565b6020604051808303816000875af1158015610605573d6000803e3d6000fd5b505050506040513d601f19601f8201168201806040525081019061062991906111d8565b508073ffffffffffffffffffffffffffffffffffffffff1663a9059cbb33856040518363ffffffff1660e01b8152600401610665929190611177565b6020604051808303816000875af1158015610684573d6000803e3d6000fd5b505050506040513d601f19601f820116820180604052508101906106a891906111d8565b503373ffffffffffffffffffffffffffffffffffffffff167f1f649b4452494b105b8454369f7edc62d4542521e3d06f9d01cc8f14a8a30b65878787876040516106f594939291906112d0565b60405180910390a25050610707610b49565b50505050565b6107156109b8565b600073ffffffffffffffffffffffffffffffffffffffff168173ffffffffffffffffffffffffffffffffffffffff1603610784576040517f08c379a000000000000000000000000000000000000000000000000000000000815260040161077b90611395565b60405180910390fd5b61078d81610a36565b50565b610798610afa565b60006002846040516107aa9190611053565b908152602001604051809103902060009054906101000a900473ffffffffffffffffffffffffffffffffffffffff169050600073ffffffffffffffffffffffffffffffffffffffff168173ffffffffffffffffffffffffffffffffffffffff160361084a576040517f08c379a0000000000000000000000000000000000000000000000000000000008152600401610841906110b6565b60405180910390fd5b8147101561088d576040517f08c379a000000000000000000000000000000000000000000000000000000000815260040161088490611427565b60405180910390fd5b8073ffffffffffffffffffffffffffffffffffffffff166323b872dd3330866040518463ffffffff1660e01b81526004016108ca93929190611299565b6020604051808303816000875af11580156108e9573d6000803e3d6000fd5b505050506040513d601f19601f8201168201806040525081019061090d91906111d8565b503373ffffffffffffffffffffffffffffffffffffffff166108fc839081150290604051600060405180830381858888f19350505050158015610954573d6000803e3d6000fd5b503373ffffffffffffffffffffffffffffffffffffffff167fad9ebdff596f20248773296113b5e4c47088f28eac57f009f3609fc1fe1c900085848660006040516109a2949392919061124d565b60405180910390a2506109b3610b49565b505050565b6109c0610b52565b73ffffffffffffffffffffffffffffffffffffffff166109de61026b565b73ffffffffffffffffffffffffffffffffffffffff1614610a34576040517f08c379a0000000000000000000000000000000000000000000000000000000008152600401610a2b90611493565b60405180910390fd5b565b60008060009054906101000a900473ffffffffffffffffffffffffffffffffffffffff169050816000806101000a81548173ffffffffffffffffffffffffffffffffffffffff021916908373ffffffffffffffffffffffffffffffffffffffff1602179055508173ffffffffffffffffffffffffffffffffffffffff168173ffffffffffffffffffffffffffffffffffffffff167f8be0079c531659141344cd1fd0a4f28419497f9722a3daafe3b4186f6b6457e060405160405180910390a35050565b600260015403610b3f576040517f08c379a0000000000000000000000000000000000000000000000000000000008152600401610b36906114ff565b60405180910390fd5b6002600181905550565b60018081905550565b600033905090565b6000604051905090565b600080fd5b600080fd5b600080fd5b600080fd5b6000601f19601f8301169050919050565b7f4e487b7100000000000000000000000000000000000000000000000000000000600052604160045260246000fd5b610bc182610b78565b810181811067ffffffffffffffff82111715610be057610bdf610b89565b5b80604052505050565b6000610bf3610b5a565b9050610bff8282610bb8565b919050565b600067ffffffffffffffff821115610c1f57610c1e610b89565b5b610c2882610b78565b9050602081019050919050565b82818337600083830152505050565b6000610c57610c5284610c04565b610be9565b905082815260208101848484011115610c7357610c72610b73565b5b610c7e848285610c35565b509392505050565b600082601f830112610c9b57610c9a610b6e565b5b8135610cab848260208601610c44565b91505092915050565b600073ffffffffffffffffffffffffffffffffffffffff82169050919050565b6000610cdf82610cb4565b9050919050565b610cef81610cd4565b8114610cfa57600080fd5b50565b600081359050610d0c81610ce6565b92915050565b60008060408385031215610d2957610d28610b64565b5b600083013567ffffffffffffffff811115610d4757610d46610b69565b5b610d5385828601610c86565b9250506020610d6485828601610cfd565b9150509250929050565b610d7781610cd4565b82525050565b6000602082019050610d926000830184610d6e565b92915050565b6000819050919050565b610dab81610d98565b8114610db657600080fd5b50565b600081359050610dc881610da2565b92915050565b60008060408385031215610de557610de4610b64565b5b600083013567ffffffffffffffff811115610e0357610e02610b69565b5b610e0f85828601610c86565b9250506020610e2085828601610db9565b9150509250929050565b60008060008060808587031215610e4457610e43610b64565b5b600085013567ffffffffffffffff811115610e6257610e61610b69565b5b610e6e87828801610c86565b945050602085013567ffffffffffffffff811115610e8f57610e8e610b69565b5b610e9b87828801610c86565b9350506040610eac87828801610db9565b9250506060610ebd87828801610db9565b91505092959194509250565b600060208284031215610edf57610ede610b64565b5b6000610eed84828501610cfd565b91505092915050565b600080600060608486031215610f0f57610f0e610b64565b5b600084013567ffffffffffffffff811115610f2d57610f2c610b69565b5b610f3986828701610c86565b9350506020610f4a86828701610db9565b9250506040610f5b86828701610db9565b9150509250925092565b600082825260208201905092915050565b7f496e76616c696420746f6b656e20616464726573730000000000000000000000600082015250565b6000610fac601583610f65565b9150610fb782610f76565b602082019050919050565b60006020820190508181036000830152610fdb81610f9f565b9050919050565b600081519050919050565b600081905092915050565b60005b83811015611016578082015181840152602081019050610ffb565b60008484015250505050565b600061102d82610fe2565b6110378185610fed565b9350611047818560208601610ff8565b80840191505092915050565b600061105f8284611022565b915081905092915050565b7f546f6b656e2061646472657373206e6f74207365740000000000000000000000600082015250565b60006110a0601583610f65565b91506110ab8261106a565b602082019050919050565b600060208201905081810360008301526110cf81611093565b9050919050565b7f45544820616d6f756e74206d7573742062652067726561746572207468616e2060008201527f3000000000000000000000000000000000000000000000000000000000000000602082015250565b6000611132602183610f65565b915061113d826110d6565b604082019050919050565b6000602082019050818103600083015261116181611125565b9050919050565b61117181610d98565b82525050565b600060408201905061118c6000830185610d6e565b6111996020830184611168565b9392505050565b60008115159050919050565b6111b5816111a0565b81146111c057600080fd5b50565b6000815190506111d2816111ac565b92915050565b6000602082840312156111ee576111ed610b64565b5b60006111fc848285016111c3565b91505092915050565b600061121082610fe2565b61121a8185610f65565b935061122a818560208601610ff8565b61123381610b78565b840191505092915050565b611247816111a0565b82525050565b600060808201905081810360008301526112678187611205565b90506112766020830186611168565b6112836040830185611168565b611290606083018461123e565b95945050505050565b60006060820190506112ae6000830186610d6e565b6112bb6020830185610d6e565b6112c86040830184611168565b949350505050565b600060808201905081810360008301526112ea8187611205565b905081810360208301526112fe8186611205565b905061130d6040830185611168565b61131a6060830184611168565b95945050505050565b7f4f776e61626c653a206e6577206f776e657220697320746865207a65726f206160008201527f6464726573730000000000000000000000000000000000000000000000000000602082015250565b600061137f602683610f65565b915061138a82611323565b604082019050919050565b600060208201905081810360008301526113ae81611372565b9050919050565b7f496e73756666696369656e74204554482062616c616e636520696e20636f6e7460008201527f7261637400000000000000000000000000000000000000000000000000000000602082015250565b6000611411602483610f65565b915061141c826113b5565b604082019050919050565b6000602082019050818103600083015261144081611404565b9050919050565b7f4f776e61626c653a2063616c6c6572206973206e6f7420746865206f776e6572600082015250565b600061147d602083610f65565b915061148882611447565b602082019050919050565b600060208201905081810360008301526114ac81611470565b9050919050565b7f5265656e7472616e637947756172643a207265656e7472616e742063616c6c00600082015250565b60006114e9601f83610f65565b91506114f4826114b3565b602082019050919050565b60006020820190508181036000830152611518816114dc565b905091905056fea2646970667358221220a899ea14a5dc69bd1026d71390c874d54884d3606996fb3c795aaf943d964ed464736f6c63430008140033",
  "linkReferences": {},
  "deployedLinkReferences": {}
}